:020000040800F2
:1000000000000220C9F3000811F1000817F10008F0
:100010001DF1000823F1000829F10008000000008C
:100020000000000000000000000000002FF10008A8
:100030003DF10008000000004BF1000859F10008F4
:1000400019F4000819F4000819F4000819F400085C
:1000500065F1000819F4000819F4000819F4000803
:1000600019F4000819F4000819F4000819F400083C
:1000700019F4000819F4000819F4000819F400082C
:1000800019F4000819F4000871F1000819F40008C7
:1000900019F4000819F4000819F4000819F400080C
:1000A00019F400088DF1000819F4000819F400088B
:1000B000A1F10008B5F10008C9F1000819F4000821
:1000C00019F4000819F4000819F4000819F40008DC
:1000D00019F4000819F4000819F4000819F40008CC
:1000E00019F4000819F4000819F4000819F40008BC
:1000F000DDF10008F1F1000805F2000819F400082C
:1001000019F4000819F4000819F2000819F400089D
:1001100019F4000819F4000819F4000819F400088B
:100120002DF2000819F4000841F2000819F4000843
:1001300019F40008000000000000000019F4000895
:1001400019F4000819F4000819F4000819F400085B
:1001500019F4000819F4000819F4000819F400084B
:1001600019F4000819F4000819F4000819F400083B
:1001700019F4000819F40008000000000000000055
:0801800019F4000819F400084D
:1080000010B5054C237833B9044B13B10448AFF3D2
:1080100000800123237010BD6002002000000000DA
:108020006070010808B5034B1BB103490348AFF367
:10803000008008BD0000000064020020607001089C
:10804000034613F8012B002AFBD1181A0138704798
:1080500001F0FF01102A2BDB10F0070F08D010F8F9
:10806000013B013A8B422DD010F0070F42B3F6D1FD
:10807000F0B441EA012141EA014122F007047FF016
:1080800000070023F0E80256083C85EA010586EA6D
:10809000010685FA47F5A3FA87F586FA47F6A5FAA9
:1080A00087F68EB9EED1F0BC01F0FF0102F00702B5
:1080B00032B110F8013B013A83EA010313B1F8D160
:1080C0000020704701387047002D06BF3546033841
:1080D000073815F0010F07D1013015F4807F02BF7A
:1080E000013015F4C03F0130F0BC0138704700BFCB
:1080F00081F0004102E000BF83F0004330B54FEA59
:1081000041044FEA430594EA050F08BF90EA020FC5
:108110001FBF54EA000C55EA020C7FEA645C7FEA58
:10812000655C00F0E2804FEA5454D4EB5555B8BF7B
:108130006D420CDD2C4480EA020281EA030382EAEC
:10814000000083EA010180EA020281EA0303362D7E
:1081500088BF30BD11F0004F4FEA01314FF4801C51
:108160004CEA113102D0404261EB410113F0004F63
:108170004FEA03334CEA133302D0524263EB43031A
:1081800094EA050F00F0A780A4F10104D5F1200EB8
:108190000DDB02FA0EFC22FA05F2801841F1000113
:1081A00003FA0EF2801843FA05F359410EE0A5F1E7
:1081B00020050EF1200E012A03FA0EFC28BF4CF018
:1081C000020C43FA05F3C01851EBE37101F00045CE
:1081D00007D54FF0000EDCF1000C7EEB00006EEBDB
:1081E0000101B1F5801F1BD3B1F5001F0CD3490865
:1081F0005FEA30004FEA3C0C04F101044FEA4452BC
:1082000012F5800F80F09A80BCF1004F08BF5FEA42
:10821000500C50F1000041EB045141EA050130BD22
:108220005FEA4C0C404141EB010111F4801FA4F1C5
:108230000104E9D191F0000F04BF01460020B1FA1A
:1082400081F308BF2033A3F10B03B3F120020CDA52
:108250000C3208DD02F1140CC2F10C0201FA0CF030
:1082600021FA02F10CE002F11402D8BFC2F1200C95
:1082700001FA02F120FA0CFCDCBF41EA0C0190404B
:10828000E41AA2BF01EB0451294330BD6FEA040494
:108290001F3C1CDA0C340EDC04F11404C4F120027F
:1082A00020FA04F001FA02F340EA030021FA04F391
:1082B00045EA030130BDC4F10C04C4F1200220FAE8
:1082C00002F001FA04F340EA0300294630BD21FA26
:1082D00004F0294630BD94F0000F83F4801306BFEC
:1082E00081F480110134013D4EE77FEA645C18BFE0
:1082F0007FEA655C29D094EA050F08BF90EA020F77
:1083000005D054EA000C04BF1946104630BD91EA6E
:10831000030F1EBF0021002030BD5FEA545C05D171
:108320004000494128BF41F0004130BD14F58004B0
:108330003CBF01F5801130BD01F0004545F0FE4124
:1083400041F470014FF0000030BD7FEA645C1ABF59
:10835000194610467FEA655C1CBF0B46024650EA90
:10836000013406BF52EA033591EA030F41F40021BC
:1083700030BD00BF90F0000F04BF0021704730B542
:108380004FF4806404F132044FF000054FF0000117
:1083900050E700BF90F0000F04BF0021704730B5D8
:1083A0004FF4806404F1320410F0004548BF4042AD
:1083B0004FF000013EE700BF42004FEAE2014FEA02
:1083C00031014FEA02701FBF12F07F4393F07F4FDD
:1083D00081F06051704732F07F4208BF704793F0E0
:1083E0007F4F04BF41F40021704730B54FF46074F3
:1083F00001F0004521F000411CE700BF50EA0102F6
:1084000008BF704730B54FF000050AE050EA01029E
:1084100008BF704730B511F0004502D5404261EB0E
:1084200041014FF4806404F132045FEA915C3FF44F
:10843000D8AE4FF003025FEADC0C18BF03325FEAEC
:10844000DC0C18BF033202EBDC02C2F1200300FA9D
:1084500003FC20FA02F001FA03FE40EA0E0021FAC2
:1084600002F11444BDE600BF70B54FF0FF0C4CF4B0
:10847000E06C1CEA11541DBF1CEA135594EA0C0F62
:1084800095EA0C0F00F0DEF82C4481EA030621EA9D
:108490004C5123EA4C5350EA013518BF52EA0335D8
:1084A00041F4801143F4801338D0A0FB02CE4FF08A
:1084B0000005E1FB02E506F00042E0FB03E54FF0BA
:1084C0000006E1FB03569CF0000F18BF4EF0010EB2
:1084D000A4F1FF04B6F5007F64F5407404D25FEAAE
:1084E0004E0E6D4146EB060642EAC62141EA555161
:1084F0004FEAC52040EA5E504FEACE2EB4F1FD0CA3
:1085000088BFBCF5E06F1ED8BEF1004F08BF5FEA20
:10851000500E50F1000041EB045170BD06F00046D2
:1085200046EA010140EA020081EA0301B4EB5C047F
:10853000C2BFD4EB0C0541EA045170BD41F4801177
:108540004FF0000E013C00F3AB8014F1360FDEBF9C
:10855000002001F0004170BDC4F10004203C35DA78
:108560000C341BDC04F11404C4F1200500FA05F3FB
:1085700020FA04F001FA05F240EA020001F000429C
:1085800021F0004110EBD37021FA04F642EB060112
:108590005EEA430E08BF20EAD37070BDC4F10C043C
:1085A000C4F1200500FA04F320FA05F001FA04F200
:1085B00040EA020001F0004110EBD37041F10001EC
:1085C0005EEA430E08BF20EAD37070BDC4F12005F7
:1085D00000FA05F24EEA020E20FA04F301FA05F25F
:1085E00043EA020321FA04F001F0004121FA04F207
:1085F00020EA020000EBD3705EEA430E08BF20EAD7
:10860000D37070BD94F0000F0FD101F00046400010
:1086100041EB010111F4801F08BF013CF7D041EA92
:10862000060195F0000F18BF704703F00046520096
:1086300043EB030313F4801F08BF013DF7D043EA67
:108640000603704794EA0C0F0CEA135518BF95EA1D
:108650000C0F0CD050EA410618BF52EA4306D1D1A4
:1086600081EA030101F000414FF0000070BD50EAC3
:10867000410606BF1046194652EA430619D094EA4D
:108680000C0F02D150EA013613D195EA0C0F05D137
:1086900052EA03361CBF104619460AD181EA03018B
:1086A00001F0004141F0FE4141F470014FF0000043
:1086B00070BD41F0FE4141F4780170BD70B54FF0DE
:1086C000FF0C4CF4E06C1CEA11541DBF1CEA13555E
:1086D00094EA0C0F95EA0C0F00F0A7F8A4EB050440
:1086E00081EA030E52EA03354FEA013100F0888037
:1086F0004FEA03334FF0805545EA131343EA126300
:108700004FEA022245EA111545EA10654FEA0026B4
:108710000EF000419D4208BF964244F1FD0404F56D
:10872000407402D25B084FEA3202B61A65EB0305C9
:108730005B084FEA32024FF480104FF4002CB6EB86
:10874000020E75EB030E22BFB61A754640EA0C0006
:108750005B084FEA3202B6EB020E75EB030E22BF46
:10876000B61A754640EA5C005B084FEA3202B6EB87
:10877000020E75EB030E22BFB61A754640EA9C0046
:108780005B084FEA3202B6EB020E75EB030E22BF16
:10879000B61A754640EADC0055EA060E18D04FEAD4
:1087A000051545EA16754FEA06164FEAC30343EA74
:1087B00052734FEAC2025FEA1C1CC0D111F4801F41
:1087C0000BD141EA00014FF000004FF0004CB6E73A
:1087D00011F4801F04BF01430020B4F1FD0C88BFD9
:1087E000BCF5E06F3FF6AFAEB5EB030C04BFB6EBE4
:1087F000020C5FEA500C50F1000041EB045170BDD7
:108800000EF0004E4EEA113114EB5C04C2BFD4EB03
:108810000C0541EA045170BD41F480114FF0000E87
:10882000013C90E645EA060E8DE60CEA135594EA03
:108830000C0F08BF95EA0C0F3FF43BAF94EA0C0F06
:108840000AD150EA01347FF434AF95EA0C0F7FF47B
:1088500025AF104619462CE795EA0C0F06D152EACF
:1088600003353FF4FDAE1046194622E750EA4106B3
:1088700018BF52EA43067FF4C5AE50EA41047FF4C4
:108880000DAF52EA43057FF4EBAE12E74FF0FF3C29
:1088900006E000BF4FF0010C02E000BF4FF0010CFA
:1088A0004DF804CD4FEA410C7FEA6C5C4FEA430C73
:1088B00018BF7FEA6C5C1BD001B050EA410C0CBFC2
:1088C00052EA430C91EA030F02BF90EA020F002024
:1088D000704710F1000F91EA030F58BF994208BF8B
:1088E00090422CBFD8176FEAE37040F00100704748
:1088F0004FEA410C7FEA6C5C02D150EA013C07D19F
:108900004FEA430C7FEA6C5CD6D152EA033CD3D0E9
:108910005DF8040B704700BF8446104662468C46E3
:108920001946634600E000BF01B5FFF7B7FF002816
:1089300048BF10F1000F01BD4DF808EDFFF7F4FF3F
:108940000CBF012000205DF808FB00BF4DF808EDCA
:10895000FFF7EAFF34BF012000205DF808FB00BFED
:108960004DF808EDFFF7E0FF94BF012000205DF80F
:1089700008FB00BF4DF808EDFFF7CEFF94BF0120C4
:1089800000205DF808FB00BF4DF808EDFFF7C4FFBD
:1089900034BF012000205DF808FB00BF4FEA410C06
:1089A0007FEA6C5C02D150EA013C0AD14FEA430CE9
:1089B0007FEA6C5C02D152EA033C02D14FF0000026
:1089C00070474FF0010070474FEA410212F5001264
:1089D00015D211D56FF47873B3EB625212D94FEA06
:1089E000C12343F0004343EA505311F0004F23FAF0
:1089F00002F018BF404270474FF00000704750EA45
:108A0000013005D111F0004008BF6FF00040704701
:108A10004FF00000704700BF4FEA4102B2F1E0435F
:108A200024BFB3F5001CDCF1FE5C0DD901F0004C55
:108A30004FEAC0024CEA5070B2F1004F40EB8300A5
:108A400008BF20F00100704711F0804F21D113F1D1
:108A50003872BCBF01F00040704741F480114FEA0A
:108A60005252C2F11802C2F1200C10FA0CF320FA93
:108A700002F018BF40F001004FEAC1234FEAD323B0
:108A800003FA0CFC40EA0C0023FA02F34FEA43031A
:108A9000CCE77FEA625307D150EA01331EBF4FF0A3
:108AA000FE4040F44000704701F0004040F0FE40BE
:108AB00040F40000704700BF53B94AB9002908BF0D
:108AC00000281CBF4FF0FF314FF0FF3000F072B9AB
:108AD000ADF1080C6DE904CE00F006F8DDF804E015
:108AE000DDE9022304B070472DE9F047089E0446F3
:108AF0008846002B4BD18A42154667D9B2FA82F2DA
:108B00004AB1C2F1200701FA02F320FA07F79540B3
:108B100047EA030894404FEA154E230CB8FBFEF7D2
:108B20001FFA85FC0EFB178843EA084307FB0CF18C
:108B3000994209D9EB1807F1FF3080F01B81994267
:108B400040F21881023F2B445B1AA4B2B3FBFEF043
:108B50000EFB103344EA034400FB0CFCA44509D986
:108B60002C1900F1FF3380F00781A44540F2048105
:108B700002382C4440EA0740A4EB0C0400271EB145
:108B8000D4400023C6E900433946BDE8F0878B4254
:108B900009D9002E00F0EB800027C6E90001384615
:108BA0003946BDE8F087B3FA83F7002F47D18B42EF
:108BB00002D3824200F2FA80841A61EB030301209F
:108BC0009846002EE0D0C6E90048DDE702B9FFDE96
:108BD000B2FA82F2002A40F08F80491B4FEA154E0C
:108BE0001FFA85F80127B1FBFEFC230C0EFB1C11BC
:108BF00043EA014308FB0CF1994207D9EB180CF149
:108C0000FF3002D2994200F2CD808446591AA3B2B5
:108C1000B1FBFEF00EFB101443EA044408FB00F81D
:108C2000A04507D92C1900F1FF3302D2A04500F26C
:108C3000B6801846A4EB080440EA0C409FE7C7F151
:108C4000200CBB4022FA0CFE4EEA030E01FA07F498
:108C500020FA0CF521FA0CF34FEA1E482543B3FB2A
:108C6000F8F92C0C08FB19331FFA8EFA44EA034377
:108C700009FB0AF49C4202FA07F200FA07F10BD949
:108C80001EEB030309F1FF3080F087809C4240F225
:108C90008480A9F1020973441B1BADB2B3FBF8F049
:108CA00008FB103345EA034400FB0AFAA24508D941
:108CB0001EEB040400F1FF336BD2A24569D90238E0
:108CC000744440EA0940A0FB0289A4EB0A044C4525
:108CD000C2464B4654D351D0002E69D0B1EB0A05A1
:108CE00064EB030404FA0CFCFD40FC404CEA05056F
:108CF000C6E90054002747E7C2F1200320FA03F732
:108D0000954001FA02F021FA03F34FEA154E384379
:108D1000010CB3FBFEF71FFA85F80EFB173341EA8F
:108D2000034107FB08F38B4204FA02F407D96918E0
:108D300007F1FF3C2FD28B422DD9023F2944CB1A99
:108D400081B2B3FBFEF00EFB103341EA034100FB9E
:108D500008F38B4207D9691800F1FF3C17D28B4208
:108D600015D902382944C91A40EA07473BE7374674
:108D7000304609E70746E7E61846FBE64145ABD231
:108D8000B8EB020A69EB0E0201381346A4E760460D
:108D9000E9E7184695E76746D1E781467CE7023860
:108DA0002C4447E7ACF1020C2B442FE7384608E788
:108DB0003746E9E6704700BF80B584B000AF034690
:108DC000FB71FB7963F07F03DBB2FB7300220421AC
:108DD0000D4808F06BFB07F10F01642301220B48DB
:108DE00009F044F807F10E0164230122074809F055
:108DF00071F901220421044808F058FBBB7B184696
:108E00001037BD4680BD00BF000C024064DC01206D
:108E100080B584B000AF03460A46FB711346BB71B0
:108E2000FB7903F07F03DBB2FB73002204210C48C3
:108E300008F03CFB07F10F0164230122094809F007
:108E400015F8B91D64230122064809F00FF8012224
:108E50000421034808F02AFB00BF1037BD4680BD3F
:108E6000000C024064DC012080B582B000AF00201D
:108E7000FFF7A2FF0346BB71BB79E02B19D1012399
:108E8000FB7101210620FFF7C3FF10210320FFF72C
:108E9000BFFF20217F20FFF7BBFF17210120FFF735
:108EA000B7FF06211420FFF7B3FF00217F20FFF753
:108EB000AFFFFB7918460837BD4680BD98B500AFB7
:108EC0003320FFF779FF03461B021CB23420FFF763
:108ED00073FF03461BB223431AB2114B1A8035208D
:108EE000FFF76AFF03461B021CB23620FFF764FF40
:108EF00003461BB223431AB20A4B1A803720FFF7EE
:108F00005BFF03461B021CB23820FFF755FF0346E8
:108F10001BB223431AB2044B1A8000BF98BD00BF96
:108F2000DC430020DA430020D443002098B500AF92
:108F30002D20FFF741FF03461B021CB22E20FFF736
:108F40003BFF03461BB223431AB2114B1A802F205A
:108F5000FFF732FF03461B021CB23020FFF72CFF45
:108F600003461BB223431AB20A4B1A803120FFF783
:108F700023FF03461B021CB23220FFF71DFF0346EE
:108F80001BB223431AB2044B1A8000BF98BD00BF26
:108F9000D8430020DE430020D643002080B582B0B5
:108FA00000AF7860391D4FF6FF73012203480AF0C5
:108FB000EDFF7B6818460837BD4680BD0CDD0120FB
:108FC00090B585B000AF87ED030AB860C7ED010A20
:108FD0003960D7ED037A9FED1B7A67EE877A17EE3B
:108FE000900AFFF7E9F903460C4644EC103B0BF0FE
:108FF0002DFC54EC103B18462146FFF7E5FC0346D8
:109000001AB2BB681A80D7ED017A9FED0E7A67EE2F
:10901000877A17EE900AFFF7CFF903460C4644EC27
:10902000103B0BF013FC54EC103B18462146FFF7A5
:10903000CBFC03461AB23B681A8000BF1437BD460A
:1090400090BD00BF00C00D4480B400AF284B00228B
:109050001A80274BB3F90020264B1A80254BB3F911
:109060000020254B1A80244BB3F90020234B1A8093
:10907000224BB3F90020224B1A80214BB3F9002078
:10908000204B1A801F4BB3F900201F4B1A801E4B38
:10909000B3F900201D4B1A801D4B00221A801C4B77
:1090A000B3F900201B4B1A801A4BB3F900201A4B5E
:1090B0001A80194BB3F90020184B1A80174BB3F9DB
:1090C0000020174B1A80164BB3F90020154B1A805D
:1090D000144BB3F90020144B1A80134BB3F9002042
:1090E000124B1A8000BFBD465DF8047B704700BF7D
:1090F000E4E60120E24300201CE2012010E601200A
:10910000E0430020BEDC0120D2020020D0DB0120A1
:10911000EC4300204CDD012008E6012018E6012088
:109120001EE20120F4E60120D0020020D8E1012057
:1091300098B500AF194B93F90430002B03F00103ED
:10914000B8BF5B425BB2012B25D0154BD3E90001C0
:109150004FF00002134BFEF7D1FF03460C46104AB6
:10916000C2E900340E4BD3E900014FF000020E4B70
:10917000FFF7E2FB0346002B00D10CE00B4BD3E9D9
:1091800000014FF00002074BFEF7B8FF03460C4604
:10919000064AC2E9003400BF98BD00BF7400002039
:1091A000A80200200000F03F00408F40A0020020F5
:1091B000B0B400AF354B00221A605EE0344B0022A1
:1091C0001A6051E0314B1968314B1A68314C8B00F1
:1091D000981814F81030022565F3871304F810303E
:1091E0002A4B1C682A4B18682A4D8B00134415F82B
:1091F0001330C3F38113DDB22649A3001A1811F806
:10920000123065F3051301F81230204B1968204B1A
:109210001A68204DA300034415F81330C3F301135B
:10922000DDB21C4C8B00981814F8103065F38303E2
:1092300004F81030154B1C68154B1B681548890045
:109240000A4410F81220C2F38102D0B21149A200E0
:109250001A4411F8123060F3010301F812300C4B7C
:109260001B6801330A4A1360094B1B68032BA9DDF5
:10927000064B1B680133054A1360044B1B68032B24
:109280009CDD00BFBD46B0BC704700BFD44200208B
:10929000D842002020E6012080B400AF4B4B0322CF
:1092A0001A605DE04A4B00221A6050E0484B1A6891
:1092B000464B1B6847499200134411F81330C3F31F
:1092C0000103DAB2444B1B681146444AD154404B67
:1092D0001A683E4B1B683F499200134411F8133043
:1092E000C3F38103DAB23C4B1B68013311463B4A9E
:1092F000D154374B1A68354B1B68364992001344DA
:1093000011F81330C3F30113DAB2334B1B68023385
:109310001146324AD1542E4B1A682C4B1B682D49EA
:109320009200134411F81330C3F38113DAB22A4BBD
:109330001B6803331146294AD154274B1B68043359
:10934000254A1360224B1B680133214A1360204BCE
:109350001B68032BAADD1D4B1B68013B1B4A1360D6
:109360001A4B1B68002B9DDA184B03221A6023E06E
:10937000174B00221A6016E0154B1968134B1A6838
:10938000154B1B681648890001440A441178134A9A
:10939000D154114B1B6801330F4A13600C4B1B68EF
:1093A00001330B4A13600A4B1B68032BE4DD074BA8
:1093B0001B68013B054A1360044B1B68002BD7DA7E
:1093C00000BFBD465DF8047B704700BFDC42002053
:1093D000E042002020E60120E4420020D4020020E8
:1093E0009CE1012080B500AF3F4B00221A6041E0B4
:1093F0003E4B00221A6031E03D4B1B683D4AD35C76
:1094000019463D480BF006FF394B1B68013303F04A
:109410000F03002B0ED0364B1B680133032B09DDE5
:10942000334B1B68013303F00303002B02D1334895
:109430000BF0F0FE2E4B1B68013303F00F03002BE3
:1094400002D12F480BF05AFF294B1B680133284AE1
:109450001360264B1B680133244A1360234B1B689F
:109460000F2BC9DD26480BF049FF1F4B1B6801334A
:109470001D4A13601C4B1B68032BB9DD20480BF001
:109480003DFF1F480BF03AFF174B00221A6024E003
:10949000164B00221A6011E0154B1B68154AD35C6D
:1094A000194618480BF0B6FE114B1B680133104AE1
:1094B00013600E4B1B6801330C4A13600B4B1B6887
:1094C000032BE9DD0E480BF019FF0D480BF016FFDA
:1094D000054B1B680133044A1360034B1B68032BC5
:1094E000D6DD00BF80BD00BFE8420020EC42002076
:1094F000F0420020D4020020787001087C7001083E
:10950000807001088470010880B588B000AF07F052
:1095100099FB0023BB6001233B610223BB61012354
:109520007B613A1D07F108031146184607F0EAFC73
:109530000346FB7707F0A8FBFB7F002B05D17B6878
:10954000B3F1FF3F01D1012300E0002303F0010349
:10955000DBB218462037BD4680BD000080B500AFA5
:10956000054A064B104619464FF480431A460BF045
:10957000E1F9014B184680BDD402002000400008EC
:1095800090B585B000AFFFF7BFFF034683F001033E
:10959000DBB2002B01D000232FE01A4B7B6007F0D9
:1095A00051FB4FF480533B600023BB6017E0BB6866
:1095B0009B00154A9918BB689B007A6813441B6886
:1095C0004FF000041A462346022007F033FA034600
:1095D000FB73FB7B002B07D1BB680133BB60BA6810
:1095E0003B689A42E3D300E000BF07F04DFBFB7BF2
:1095F000002B0CBF01230023DBB218461437BD46F5
:1096000090BD00BFD40200200040000880B500AF2C
:109610000021044809F0CAF9002102480AF097FA2B
:1096200000BF80BDF043002080B500AF002104489A
:1096300009F040FA002102480AF0DEFA00BF80BDBE
:10964000F043002080B500AF03220A490A4806F023
:10965000FDF80346002B01D005F0CEF902220749A0
:10966000074806F0F3F80346002B01D005F0C4F9D3
:1096700000BF80BDB8020020C0DC0120C002002075
:109680007444002080B500AF084806F0D1F90346C5
:10969000002B01D005F0B0F9054806F0C9F90346E2
:1096A000002B01D005F0A8F900BF80BDC0DC01206F
:1096B0007444002080B500AF3C21044809F0F2FB5F
:1096C0003C21034809F0EEFB00BF80BD20DC0120F7
:1096D0003444002080B500AF0C21094809F0BAFAE3
:1096E0000346002B01D005F087F90421054809F055
:1096F000B1FA0346002B01D005F07EF900BF80BD12
:1097000040E60120DCDB012080B500AF0C210948D8
:1097100009F0DEFA0346002B01D005F06DF90421B3
:10972000054809F0D5FA0346002B01D005F064F98D
:1097300000BF80BD40E60120DCDB012080B500AF2A
:10974000FFF764FFFFF77EFFFFF78EFBFFF7C2FF17
:1097500000BF80BD00000000B0B500AFFFF7AEFB5A
:10976000FFF7E4FB544B1B881BB21846FEF712FEB2
:109770004FF000024FF08043FEF7C0FC03460C465A
:109780001846214646A3D3E90023FEF797FF034678
:109790000C461846214644A3D3E90023FEF764FE95
:1097A00003460C46184621464FF00002434BFEF795
:1097B00085FF03460C46424AC2E90034414BD3E9D7
:1097C00000013F4BD3E900341A462346FEF796FCCE
:1097D00003460C461846214635A3D3E90023FEF77D
:1097E00043FE03460C46184621464FF000024FF058
:1097F0008043FEF763FF03460C4618462146324B72
:10980000D3E900341A462346FEF778FC03460C469B
:109810002D4AC2E900342C4BD3E900452B4BD3E948
:10982000000121A3D3E90023FEF71EFE02460B46EA
:10983000104619464FF00002204BFEF73FFF02464C
:109840000B4620462946FEF757FC03460C461E4AA7
:10985000C2E900341A4BD3E900341A4AC2E9003491
:10986000194BD3E900014FF00002144BFEF7FCFD49
:1098700003460C46184621460BA3D3E90023FEF706
:109880001DFF03460C46124AC2E900340C4BD3E9D3
:10989000003444EC173BB0EE470AF0EE670AB0BD67
:1098A0006666666666663040182D4454FB210940A2
:1098B000FCA9F1D24D62503FD443002000806640A5
:1098C000F8420020004300209002002018000020F1
:1098D00088020020B0B58CB000AF87ED0A0B87ED91
:1098E000081B87ED062B87ED043B87ED024B87EDC8
:1098F000005B744B9B7903F00103DBB2002B1BD19F
:10990000714A4FF000034FF00004C2E900346F4A7F
:109910004FF000034FF00004C2E900346C4A4FF0EE
:1099200000034FF00004C2E900346A4A4FF000031C
:109930004FF00004C2E90034624A937943F0010316
:109940009371D7E90823D7E90A01FEF7D5FB03464F
:109950000C465D4AC2E900345B4BD3E90001D7E90C
:109960000623FEF781FD03460C4618462146574B59
:10997000D3E900341A462346FEF7C0FB03460C46E3
:10998000524AC2E90034504BD3E90001514BD3E9AC
:1099900000341A462346FEF7AFFB03460C46184632
:1099A0002146D7E90623FEF789FE03460C46484ABE
:1099B000C2E90034444BD3E90034464AC2E90034DA
:1099C000414BD3E90001D7E90423FEF74DFD0346DF
:1099D0000C4625461C463D4BD3E90001D7E902233E
:1099E000FEF742FD02460B4620462946FEF786FB5F
:1099F00003460C4625461C46354BD3E90001D7E902
:109A00000023FEF731FD02460B4620462946FEF7AD
:109A100075FB03460C4644EC173BB0EE470AF0EEEC
:109A2000670A0AF013FF54EC103B18462146FEF774
:109A3000CBFF03461BB29BB25B429BB21AB2264BD2
:109A40001A80214BD3E90001D7E90423FEF70CFD6E
:109A500003460C4625461C461C4BD3E90001D7E9BA
:109A60000223FEF701FD02460B4620462946FEF77B
:109A700045FB03460C4625461C46154BD3E9000121
:109A8000D7E90023FEF7F0FC02460B4620462946A4
:109A9000FEF734FB03460C4644EC173BB0EE470A96
:109AA000F0EE670A0AF0D2FE54EC103B184621464D
:109AB000FEF78AFF03461AB2084B1A8000BF303700
:109AC000BD46B0BD740000200843002010430020B4
:109AD00018430020204300201CE2012008E601205A
:109AE00080B500AF5A4B93F90030072B00F2AC80E1
:109AF00001A252F823F000BF199B00083F9B000809
:109B0000659B00088B9B0008B19B0008D79B000851
:109B1000FD9B0008239C000800224FF400714D4873
:109B200007F0C4FC00224FF480714A4807F0BEFCE5
:109B300000224FF40071484807F0B8FC85E001228C
:109B40004FF40071434807F0B1FC00224FF48071DC
:109B5000404807F0ABFC00224FF400713E4807F08C
:109B6000A5FC72E000224FF400713A4807F09EFC19
:109B700001224FF48071374807F098FC00224FF41F
:109B80000071354807F092FC5FE001224FF400714C
:109B9000304807F08BFC01224FF480712D4807F00C
:109BA00085FC00224FF400712B4807F07FFC4CE04D
:109BB00000224FF40071274807F078FC00224FF490
:109BC0008071244807F072FC01224FF40071224892
:109BD00007F06CFC39E001224FF400711D4807F0DA
:109BE00065FC00224FF480711A4807F05FFC0122E7
:109BF0004FF40071184807F059FC26E000224FF49A
:109C00000071144807F052FC01224FF48071114892
:109C100007F04CFC01224FF400710F4807F046FC9E
:109C200013E001224FF400710A4807F03FFC0122C3
:109C30004FF48071074807F039FC01224FF400719E
:109C4000054807F033FC00E000BF00BF80BD00BF47
:109C500074000020000802400004024080B582B079
:109C600000AF03460A46FB801346BB80B7F90630B7
:109C7000002B05DD012204211A4807F017FC0CE037
:109C8000B7F90630002B08DA00220421154807F046
:109C90000DFCFB885B429BB2FB80B7F90430002BC4
:109CA00005DD002201210F4807F000FC0CE0B7F9A8
:109CB0000430002B08DA012201210A4807F0F6FBE4
:109CC000BB885B429BB2BB80074B1B68B7F9062081
:109CD0001A64064B1B68B7F904209A6300BF083763
:109CE000BD4680BD0000024040E60120DCDB0120D3
:109CF00080B400AF804B1B881AB2804B1A807E4B19
:109D00005B881AB27E4B1A807E4B1B881AB27E4B40
:109D10001A807C4B5B881AB27C4B1A807C4BB3F95F
:109D200000301A46754BB3F90030D31A002BB8BF78
:109D30005B421AB2774B1A80774BB3F900301A4660
:109D40006F4BB3F90030D31A002BB8BF5B421AB285
:109D5000724B1A80724BB3F900301A466A4BB3F952
:109D60000030D31A002BB8BF5B421AB26D4B1A8079
:109D70006D4BB3F900301A46644BB3F90030D31A77
:109D8000002BB8BF5B421AB2684B1A805B4BB3F929
:109D900000205F4B1A805A4BB3F900205E4B1A80AB
:109DA000594BB3F900205E4B1A80584BB3F9002091
:109DB0005D4B1A80504B9B8807EE903AF8EE677A1D
:109DC0005B4BC3ED007A5B4BB3F900309AB2514B59
:109DD000B3F900309BB213449BB21AB2554B1A80B0
:109DE000554BB3F900309AB24C4BB3F900309BB2EB
:109DF00013449BB21AB2504B1A80504BB3F9003047
:109E00009AB2484BB3F900309BB213449BB21AB2DA
:109E10004A4B1A804A4BB3F900309AB2434BB3F91C
:109E200000309BB213449BB21AB2454B1A80454B8B
:109E30001B680133434A1360424B1B680A2B56D1FF
:109E40003C4BB3F9003007EE903AF8EEE76A3D4B31
:109E50001B6807EE903AB8EEE77AC6EE877A3A4B7F
:109E6000C3ED007A344BB3F9003007EE903AF8EEC8
:109E7000E76A344B1B6807EE903AB8EEE77AC6EE15
:109E8000877A324BC3ED007A2C4BB3F9003007EEE2
:109E9000903AF8EEE76A2B4B1B6807EE903AB8EE63
:109EA000E77AC6EE877A2A4BC3ED007A244BB3F9E2
:109EB000003007EE903AF8EEE76A224B1B6807EE97
:109EC000903AB8EEE77AC6EE877A224BC3ED007A75
:109ED000184B00221A80184B00221A80174B0022C0
:109EE0001A80174B00221A80164B00221A6000BFFE
:109EF000BD465DF8047B7047B8020020BC440020DA
:109F000028000020C0020020C602002082E60120B6
:109F1000C4440020BE440020CA020020CC0200201D
:109F2000C8020020CE020020E44300201CDC0120F7
:109F30000CE70120D4DB012008DD0120BCDC01207E
:109F400060DC012028430020F8E601200CE6012017
:109F5000E8430020D8DB012080B487B000AF87ED54
:109F6000010AC7ED000A0F4B7B614FF08E433B6146
:109F7000D7ED056AD7ED047A86EEA77AD7ED017A98
:109F800067EE276A97ED007AC6EE877AC7ED037A07
:109F9000FB6807EE903AB0EE670A1C37BD465DF8E5
:109FA000047B70470E1F824280B400AF064B47F21D
:109FB0002F525A62054B47F22F525A6200BFBD46DC
:109FC0005DF8047B704700BF0004004000080040BB
:109FD00080B483B000AF0346FB80B7F90630002B96
:109FE00002D10023FB8030E0B7F90630012B2CD1E1
:109FF0001A4B5A68194B1B681344184A5360184B84
:10A000005A68174B1B681344154A5360134B5A6820
:10A01000134B5B68134407EE903AB8EEE77AF0EE24
:10A02000006AC7EE267AFDEEE77A17EE902A0D4B0E
:10A030005A600A4B1A680A4B1B681A440A4B1B6881
:10A040001344094A13600123FB80B7F90630184610
:10A050000C37BD465DF8047B704700BF5000002000
:10A060005C00002068000020B002002090B583B0A2
:10A0700000AF87ED010A584B9B7A03F00103DBB276
:10A08000002B0FD1554B4FF000021A60544B4FF08C
:10A0900000021A60534B4FF000021A60524B4FF00F
:10A0A00000021A60514BD3ED007A9FED517A37EEE2
:10A0B000877A504BD3ED007A77EE677A474BC3ED42
:10A0C000007A464B93ED007AD7ED017A27EE277A96
:10A0D000434BD3ED007A77EE277A414BC3ED007AFC
:10A0E0003E4B93ED007A404BD3ED007A77EE676AF2
:10A0F00097ED017AC6EE877A3A4BC3ED007A374B7B
:10A100001B68394A13603C4B93ED007A334BD3ED17
:10A11000007A27EE277A384BD3ED016A304BD3ED26
:10A12000007A66EEA77A37EE277A334BD3ED026AD0
:10A130002C4BD3ED007A66EEA77A77EE277A17EEEE
:10A14000900AFEF739F903460C4644EC103B0AF03E
:10A150007DFB54EC103B18462146FEF735FC0346C8
:10A160001AB2264B1A80244B93ED007A1B4BD3ED89
:10A17000007A27EE277A204BD3ED016A184BD3EDF6
:10A18000007A66EEA77A37EE277A1B4BD3ED026A88
:10A19000144BD3ED007A66EEA77A77EE277A17EEA6
:10A1A000900AFEF709F903460C4644EC103B0AF00E
:10A1B0004DFB54EC103B18462146FEF705FC0346C8
:10A1C0001BB29BB25B429BB21AB20D4B1A8000BF0E
:10A1D0000C37BD4690BD00BF740000202C4300200A
:10A1E0003043002034430020384300200CE6012097
:10A1F00000002042E84300202C000020D002002074
:10A20000D202002090B583B000AF87ED010A5D4B0C
:10A210009B7A03F00103DBB2002B0FD15A4B4FF0B6
:10A2200000021A60594B4FF000021A60584B4FF071
:10A2300000021A60574B4FF000021A60564B93ED24
:10A24000007A564BD3ED007A77EE677A17EE900AD4
:10A25000FEF7B2F84FF03332514BFEF705F90346E3
:10A260000C4618462146FEF7D7FB0246464B1A60BD
:10A27000454B93ED007AD7ED017A27EE277A434BD1
:10A28000D3ED007A77EE277A404BC3ED007A3E4B50
:10A2900093ED007A3F4BD3ED007A77EE676A97ED46
:10A2A000017AC6EE877A3A4BC3ED007A364B1B68CB
:10A2B000384A13603B4B93ED007A334BD3ED007A71
:10A2C00027EE277A374BD3ED016A304BD3ED007A76
:10A2D00066EEA77A37EE277A324BD3ED026A2C4B23
:10A2E000D3ED007A66EEA77A77EE277A17EE900A1A
:10A2F000FEF762F803460C4644EC103B0AF0A6FA5F
:10A3000054EC103B18462146FEF75EFB03461BB299
:10A310009BB25B429BB21AB2234B1A80214B93ED46
:10A32000007A194BD3ED007A27EE277A1D4BD3ED37
:10A33000016A164BD3ED007A66EEA77A37EE277ADC
:10A34000184BD3ED026A124BD3ED007A66EEA77A72
:10A3500077EE277A17EE900AFEF72EF803460C46A2
:10A3600044EC103B0AF072FA54EC103B18462146BC
:10A37000FEF72AFB03461AB20C4B1A8000BF0C37BB
:10A38000BD4690BD740000203C43002040430020A7
:10A39000444300204843002024000020E8430020DC
:10A3A0003333F33F2C000020BEDC0120F4E6012013
:10A3B00090B583B000AF87ED010A5D4B9B7A03F047
:10A3C0000103DBB2002B0FD15A4B4FF000021A6091
:10A3D000594B4FF000021A60584B4FF000021A60C0
:10A3E000574B4FF000021A60564B93ED007A564BD4
:10A3F000D3ED007A77EE677A17EE900AFDF7DCFF6F
:10A400004FF03332514BFEF72FF803460C461846F7
:10A410002146FEF701FB0246464B1A60454B93ED81
:10A42000007AD7ED017A27EE277A434BD3ED007AF5
:10A4300077EE277A404BC3ED007A3E4B93ED007ADE
:10A440003F4BD3ED007A77EE676A97ED017AC6EE5F
:10A45000877A3A4BC3ED007A364B1B68384A136053
:10A460003B4B93ED007A334BD3ED007A27EE277AFE
:10A47000374BD3ED016A304BD3ED007A66EEA77A05
:10A4800037EE277A324BD3ED026A2C4BD3ED007AAC
:10A4900066EEA77A77EE277A17EE900AFDF78CFF23
:10A4A00003460C4644EC103B0AF0D0F954EC103B48
:10A4B00018462146FEF788FA03461AB2254B1A8041
:10A4C000234B93ED007A1B4BD3ED007A27EE277ACE
:10A4D0001F4BD3ED016A184BD3ED007A66EEA77AD5
:10A4E00037EE277A1A4BD3ED026A144BD3ED007A7C
:10A4F00066EEA77A77EE277A17EE900AFDF75CFFF3
:10A5000003460C4644EC103B0AF0A0F954EC103B17
:10A5100018462146FEF758FA03461BB29BB25B422F
:10A520009BB21AB20C4B1A8000BF0C37BD4690BDCF
:10A53000740000204C43002050430020544300206E
:10A5400058430020200000200CE601203333F33F65
:10A550002C000020E04300201EE2012090B585B0D1
:10A5600000AF87ED030AC7ED020A87ED011A554BCC
:10A570009B7A03F00103DBB2002B0FD1524B4FF05B
:10A5800000021A60514B4FF000021A60504B4FF01E
:10A5900000021A604F4B4FF000021A60494A937A4A
:10A5A00043F00103937297ED037AD7ED027A77EEC9
:10A5B000677A454BC3ED007A434B93ED007AD7EDB4
:10A5C000017A27EE277A414BD3ED007A77EE277A8E
:10A5D0003E4BC3ED007A3C4B93ED007A3D4BD3EDFF
:10A5E000007A77EE676A97ED017AC6EE877A384B84
:10A5F000C3ED007A344B1B68364A1360364B93ED3B
:10A60000007A314BD3ED007A27EE277A324BD3ED27
:10A61000016A2E4BD3ED007A66EEA77A37EE277AE1
:10A620002D4BD3ED026A2A4BD3ED007A66EEA77A62
:10A6300077EE277A17EE900AFDF7BEFE03460C462A
:10A6400044EC103B0AF002F954EC103B184621464A
:10A65000FEF7BAF903461AB2204B1A801E4B93ED4F
:10A66000007A194BD3ED007A27EE277A1A4BD3EDF7
:10A67000016A164BD3ED007A66EEA77A37EE277A99
:10A68000154BD3ED026A124BD3ED007A66EEA77A32
:10A6900077EE277A17EE900AFDF78EFE03460C46FA
:10A6A00044EC103B0AF0D2F854EC103B184621461B
:10A6B000FEF78AF903461AB2094B1A8000BF143715
:10A6C000BD4690BD740000205C4300206043002024
:10A6D000644300206843002038000020D8E10120B6
:10A6E000D0DB012090B583B000AF87ED010A3E4B6F
:10A6F0009B7A03F00103DBB2002B0FD13B4B4FF0F1
:10A7000000021A603A4B4FF000021A60394B4FF0CA
:10A7100000021A60384B4FF000021A60324A937AF6
:10A7200043F001039372354B93ED007A344BD3ED34
:10A73000007A77EE677A2D4BC3ED007A2B4B93EDC1
:10A74000007AD7ED017A27EE277A294BD3ED007AEC
:10A7500077EE277A264BC3ED007A244B93ED007AEF
:10A76000254BD3ED007A77EE676A97ED017AC6EE56
:10A77000877A204BC3ED007A1C4B1B681E4A13607E
:10A78000204B93ED007A194BD3ED007A27EE277A10
:10A790001C4BD3ED016A164BD3ED007A66EEA77A17
:10A7A00037EE277A174BD3ED026A124BD3ED007ABE
:10A7B00066EEA77A77EE277A17EE900AFDF7FCFD92
:10A7C00003460C4644EC103B0AF040F854EC103BB6
:10A7D00018462146FEF7F8F803461AB20A4B1A80CB
:10A7E00000BF0C37BD4690BD740000206C430020B4
:10A7F000704300207443002078430020C0440020B0
:10A80000F0E6012038000020EC43002090B583B032
:10A8100000AF87ED010A3E4B9B7A03F00103DBB2E8
:10A82000002B0FD13B4B4FF000021A603A4B4FF018
:10A8300000021A60394B4FF000021A60384B4FF09B
:10A8400000021A60324A937A43F001039372354B47
:10A8500093ED007A344BD3ED007A77EE677A2D4B87
:10A86000C3ED007A2B4B93ED007AD7ED017A27EEFA
:10A87000277A294BD3ED007A77EE277A264BC3ED62
:10A88000007A244B93ED007A254BD3ED007A77EED6
:10A89000676A97ED017AC6EE877A204BC3ED007A9E
:10A8A0001C4B1B681E4A1360204B93ED007A194B1A
:10A8B000D3ED007A27EE277A1C4BD3ED016A164BB5
:10A8C000D3ED007A66EEA77A37EE277A174BD3EDF1
:10A8D000026A124BD3ED007A66EEA77A77EE277AFA
:10A8E00017EE900AFDF768FD03460C4644EC103B5A
:10A8F00009F0ACFF54EC103B18462146FEF764F813
:10A9000003461AB20A4B1A8000BF0C37BD4690BDF1
:10A91000740000207C4300208043002084430020FA
:10A9200088430020E8E601201CE6012038000020D2
:10A93000E4E6012090B587B000AF87ED050AC7EDCA
:10A94000040A87ED031AC7ED021A87ED012A724B3C
:10A950009B7A03F00103DBB2002B1FD16F4B4FF04A
:10A9600000021A606E4B4FF000021A606D4B4FF000
:10A9700000021A606C4B4FF000021A606B4B4FF0F4
:10A9800000021A606A4B4FF000021A60694B4FF0E8
:10A9900000021A60684B4FF000021A605E4A937A18
:10A9A00043F001039372654BD3ED007A97ED057A7E
:10A9B00077EE677A594BC3ED007AD7ED057AB1EEA1
:10A9C000677A5F4BD3ED007A77EE677A544BC3ED2D
:10A9D000007A524B93ED007AD7ED047A27EE277A6E
:10A9E000504BD3ED007A77EE277A4E4BC3ED007AC9
:10A9F0004B4B93ED007AD7ED047A27EE277A4A4B3A
:10AA0000D3ED007A77EE277A474BC3ED007A434BBC
:10AA100093ED007A474BD3ED007A77EE676A97EDB6
:10AA2000047AC6EE877A414BC3ED007A3C4B93ED36
:10AA3000007A414BD3ED007A77EE676A97ED047A9E
:10AA4000C6EE877A3A4BC3ED007A344B1B68394A1D
:10AA50001360334B1B68384A1360304B93ED007A18
:10AA6000D7ED037A27EE277A2E4BD3ED006AD7ED88
:10AA7000027A66EEA77A37EE277A2C4BD3ED006A7E
:10AA8000D7ED017A66EEA77A77EE277A17EE900A6D
:10AA9000FDF792FC03460C4644EC103B09F0D6FE51
:10AAA00054EC103B18462146FDF78EFF03461AB2C0
:10AAB000244B1A801A4B93ED007AD7ED037A27EED8
:10AAC000277A194BD3ED006AD7ED027A66EEA77AA2
:10AAD00037EE277A164BD3ED006AD7ED017A66EE92
:10AAE000A77A77EE277A17EE900AFDF765FC034602
:10AAF0000C4644EC103B09F0A9FE54EC103B184600
:10AB00002146FDF761FF03461AB20F4B1A8000BFC2
:10AB10001C37BD4690BD00BF740000208C43002050
:10AB20009043002094430020984300209C43002041
:10AB3000A0430020A4430020A8430020F0E6012009
:10AB40001CE6012018E6012010E6012090B583B034
:10AB500000AF87ED010A584B9B7A03F00103DBB28B
:10AB6000002B0FD1554B4FF000021A60544B4FF0A1
:10AB700000021A60534B4FF000021A60524B4FF024
:10AB800000021A604C4A937A43F0010393724F4BD0
:10AB900093ED007A4E4BD3ED007A77EE677A474B10
:10ABA000C3ED007A454B93ED007AD7ED017A27EE9D
:10ABB000277A434BD3ED007A77EE277A404BC3EDEB
:10ABC000007A3E4B93ED007A3F4BD3ED007A77EE5F
:10ABD000676A97ED017AC6EE877A3A4BC3ED007A41
:10ABE000364B1B68384A13603A4B93ED007A334B6F
:10ABF000D3ED007A27EE277A364BD3ED016A304B3E
:10AC0000D3ED007A66EEA77A37EE277A314BD3ED93
:10AC1000026A2C4BD3ED007A66EEA77A77EE277A9C
:10AC200017EE900AFDF7C8FB03460C4644EC103BB8
:10AC300009F00CFE54EC103B18462146FDF7C4FE0B
:10AC400003461AB2244B1A80224B93ED007A1B4B19
:10AC5000D3ED007A27EE277A1E4BD3ED016A184B0D
:10AC6000D3ED007A66EEA77A37EE277A194BD3ED4B
:10AC7000026A144BD3ED007A66EEA77A77EE277A54
:10AC800017EE900AFDF798FB03460C4644EC103B88
:10AC900009F0DCFD54EC103B18462146FDF794FE0C
:10ACA00003461BB29BB25B429BB21AB20B4B1A809B
:10ACB00000BF0C37BD4690BD74000020AC4300209F
:10ACC000B0430020B4430020B84300201CE601201C
:10ACD000F0E60120380000204CDD0120E243002096
:10ACE00080B500AF224A937A6FF300039372FEF7A8
:10ACF000ABF91F4B04225A711E4B00225A601E4BA7
:10AD000000225A601D4B00225A60194B0122DA7052
:10AD100002E0174B01225A70164B5A68164B5B68BB
:10AD20001344002B0FDB134B5A68134B5B6813441F
:10AD30001846FDF72FFB0CA3D3E90023FDF706FE11
:10AD40000346002BE5D10A4B00225A700C4B0D4AEA
:10AD50001A60084B00225A60074B00225A60074BCA
:10AD600000225A6000BF80BDC8BD6EFC245FEE406B
:10AD700074000020500000205C00002068000020CB
:10AD80007C0200200000074380B500AF4A4A937A56
:10AD90006FF300039372FEF757F9474B04225A7181
:10ADA000464B00225A60464B00225A60454B002217
:10ADB0005A60414B0122DA704DE03F4B02225A703B
:10ADC0003E4B5A683E4B5B6813441846FDF7E2FA67
:10ADD00035A3D3E90023FDF7D7FD0346002B37D079
:10ADE000394BD3ED007A9FED397AF4EEC77AF1EE64
:10ADF00010FA0DDD364BD3ED007A9FED367AF4EE86
:10AE0000C77AF1EE10FA03DD2B4B00225A7122E0D3
:10AE10002F4BD3ED007A9FED2F7AF4EEC77AF1EE47
:10AE200010FA03DD244B01225A7114E0264BD3EDB6
:10AE3000007A9FED267AF4EEC77AF1EE10FA03DD80
:10AE40001D4B02225A7106E01B4B04225A7102E08C
:10AE5000194B04225A71194B5A68194B5B681344F9
:10AE6000002B0FDB154B5A68154B5B6813441846D3
:10AE7000FDF790FA0EA3D3E90023FDF767FD034623
:10AE8000002B9AD10C4B00225A70134B134A1A60B4
:10AE90000A4B00225A600A4B00225A60094B0022DA
:10AEA0005A6000BF80BD00BF66AE04DEA997D840DF
:10AEB000F59C6AE11822E640740000205000002052
:10AEC0005C000020680000200CE601200000C84261
:10AED000E843002000000C437C02002000000743F0
:10AEE00080B500AF4A4B04225A714DE0484B032213
:10AEF0005A70484B5A68484B5B6813441846FDF734
:10AF000049FA3FA3D3E90023FDF720FD0346002BB8
:10AF100037D0424BD3ED007A9FED417AF4EEC77AF9
:10AF2000F1EE10FA0DDD3F4BD3ED007A9FED3E7A46
:10AF3000F4EEC77AF1EE10FA03DD354B00225A71B8
:10AF400022E0384BD3ED007A9FED377AF4EEC77AE2
:10AF5000F1EE10FA03DD2E4B01225A7114E02F4B53
:10AF6000D3ED007A9FED2E7AF4EEC77AF1EE10FA67
:10AF700003DD274B02225A7106E0254B04225A7149
:10AF800002E0234B04225A71224B5A68224B5B6821
:10AF900013441846FDF7FEF91BA3D3E90023FDF780
:10AFA000D5FC0346002B12D0204B93ED007A204BAA
:10AFB000D3ED007A37EE277AF0EE006AC7EE267AF4
:10AFC0009FED1C7AF4EEC77AF1EE10FA8ED4104B96
:10AFD00000225A700E4B05225A71174B4FF0000297
:10AFE0001A600B4B0022DA70094A937A6FF3000360
:10AFF0009372FEF729F800BF80BD00BFAFF3008059
:10B0000088AF6B95D3B2E340F59C6AE11822E64025
:10B0100074000020500000205C0000200CE601209D
:10B020000000C842E843002000000C43F8E601207D
:10B03000D8DB0120006006457C02002000000000F3
:10B04000B0B500AF7EE0544B5A68544B5B68134474
:10B050001846FDF79FF904460D46514BD3ED007A93
:10B0600077EEA77A17EE900AFDF7A6F946A3D3E983
:10B070000023FDF7F9F902460B4620462946FDF765
:10B0800065FC0346002B22D1454BD3ED007A77EEC9
:10B09000A77A17EE900AFDF78FF93DA3D3E90023B5
:10B0A000FDF72AF803460C4625461C463A4B5A68DB
:10B0B0003A4B5B6813441846FDF76CF902460B46A1
:10B0C00020462946FDF742FC0346002B37D0354B7E
:10B0D000D3ED007A9FED347AF4EEC77AF1EE10FAF0
:10B0E0000DDD324BD3ED007A9FED317AF4EEC77A65
:10B0F000F1EE10FA03DD2F4B00225A711EE02B4BAC
:10B10000D3ED007A9FED2A7AF4EEC77AF1EE10FAC9
:10B1100003DD284B01225A7114E0224BD3ED007A53
:10B120009FED217AF4EEC77AF1EE10FA03DD214BA0
:10B1300002225A7106E01F4B04225A7102E01D4B95
:10B1400004225A71144B5A68144B5B68134407EE7F
:10B15000903AB8EEE77A124BD3ED007A77EEA77A01
:10B16000B4EEE77AF1EE10FA3FF56DAF0A4B00222C
:10B170005A600A4B00225A600F4B00225A6000BFEF
:10B18000B0BD00BFAFF30080CDCCCCCCCCCCDC3F8D
:10B1900046D138D7CB82DD40500000205C00002033
:10B1A000000000200CE601200000C842E843002017
:10B1B00000000C43740000206800002080B485B0BB
:10B1C00000AF87ED030AC7ED020A87ED011AC7ED4C
:10B1D000001A97ED017AF1EE046AC7EE267A97ED30
:10B1E000007AB4EEE77AF1EE10FA0DD5D7ED027AD7
:10B1F000DFED2F6A87EEA67AD7ED037A77EE277A0E
:10B200002C4BC3ED007A48E097ED017AF1EE046A29
:10B21000C7EE267A97ED007AB4EEE77AF1EE10FAEF
:10B2200014DBD7ED017AB1EE007A27EE877AF1EEE2
:10B23000046AC7EE267A97ED007AB4EEE77AF1EE6B
:10B2400010FA03D81B4AFB68136026E0D7ED017A99
:10B25000B1EE007A27EE877AF1EE046AC7EE267A1D
:10B2600097ED007AB4EEE77AF1EE10FA15DD97ED7E
:10B27000007AD7ED017AB4EEE77AF1EE10FA0CD548
:10B2800097ED027ADFED0A6AC7EE267A97ED037A28
:10B2900077EE677A074BC3ED007A064B1B6807EE23
:10B2A000903AB0EE670A1437BD465DF8047B7047EC
:10B2B00000B0B346BC4300202DE9B0432DED028B16
:10B2C00084B000AF034687ED000BFB73FEF702FA74
:10B2D00097F90F30002B37DA27E0474B93ED008BBF
:10B2E000464B1B681846FDF767F804460D46434B6E
:10B2F0005B681846FDF760F8804689463F4B9B68BF
:10B300001846FDF759F802460B4643EC152B49EC5D
:10B31000148B45EC134B9FED362BB0EE481AF0EE34
:10B32000681A97ED000BFEF7D5FA97F90F3018461B
:10B33000FDF730F8324BD3E900341A462346FDF7C7
:10B3400005FB0346002BC8D197F90F30002B37DDE2
:10B3500027E0294B93ED008B284B1B681846FDF71F
:10B360002BF804460D46254B5B681846FDF724F87C
:10B3700080468946214B9B681846FDF71DF802461A
:10B380000B4643EC152B49EC148B45EC134B9FED0E
:10B39000182BB0EE481AF0EE681A97ED000BFEF786
:10B3A00099FA97F90F301846FCF7F4FF144BD3E9DC
:10B3B00000341A462346FDF7E7FA0346002BC8D1AE
:10B3C000104B0022DA70104A4FF000034FF00004D7
:10B3D000C2E900340A4A4FF000034FF00004C2E90A
:10B3E000003400BF1037BD46BDEC028BBDE8B08312
:10B3F000FCA9F1D24D62503F980200204400002089
:10B4000088020020740000209002002080B582B0E5
:10B4100000AF0023FB717AE0444B4FF000021A604A
:10B42000434A937A6FF300039372FDF70DFE414B8D
:10B4300000225A60404B00225A60404B00225A6062
:10B440003B4B0122DA7032E03D4BD3ED007A3D4BAD
:10B4500093ED007A374B5B6806EE903AF8EEE66AB9
:10B46000F0EE661AB0EE471ADFED370AB0EE670A63
:10B47000FFF7A4FEF0EE407A314BC3ED007A304B7B
:10B48000D3ED007A314B93ED007A304BD3ED016A66
:10B490002E4B93ED026AB0EE462AF0EE661AB0EE3D
:10B4A000471ADFED2B0AB0EE670AFFF743FA214B8C
:10B4B0005A68214B5B68D31A07EE903AB8EEE77AE8
:10B4C000204BD3ED007A77EEA77AB4EEE77AF1EE6F
:10B4D00010FAB9D9164B0022DA701E4B00221A80DE
:10B4E0001D4B00221A80114B4FF000021A60144BC2
:10B4F0004FF000021A600F4B00225A600E4B0022E0
:10B500005A600E4B00225A60FB790133FB71FB79C4
:10B51000002B81D0064A937A6FF300039372FDF7F4
:10B5200093FD00BF0837BD4680BD00BF7C020020F0
:10B5300074000020500000205C0000206800002003
:10B540008002002004000020000016C43800002003
:10B550006F12833A18E6012010E6012080B582B010
:10B5600000AF0023FB717AE0444B4FF000021A60F9
:10B57000434A937A6FF300039372FDF765FD414BE5
:10B5800000225A60404B00225A60404B00225A6011
:10B590003B4B0122DA7032E03D4BD3ED007A3D4B5C
:10B5A00093ED007A384B5B6806EE903AF8EEE66A67
:10B5B000F0EE661AB0EE471ADFED370AB0EE670A12
:10B5C000FFF7FCFDF0EE407A314BC3ED007A304BD3
:10B5D000D3ED007A314B93ED007A304BD3ED016A15
:10B5E0002E4B93ED026AB0EE462AF0EE661AB0EEEC
:10B5F000471ADFED2B0AB0EE670AFFF79BF9224BE3
:10B600005A68204B5B68D31A07EE903AB8EEE77A97
:10B61000204BD3ED007A77EEA77AB4EEE77AF1EE1D
:10B6200010FAB9D9164B0022DA701E4B00221A808C
:10B630001D4B00221A80114B4FF000021A60144B70
:10B640004FF000021A600F4B00225A600E4B00228E
:10B650005A600E4B00225A60FB790133FB71FB7973
:10B66000002B81D0064A937A6FF300039372FDF7A3
:10B67000EBFC00BF0837BD4680BD00BF7C02002048
:10B6800074000020500000205C00002068000020B2
:10B690008002002004000020000016443800002032
:10B6A0006F12833A18E6012010E601200000000026
:10B6B00098B500AF504B06225A7102E04E4B06225D
:10B6C0005A704E4B5A684E4B5B6813441846FCF751
:10B6D00061FE3FA3D3E90023FDF738F90346002BB1
:10B6E000ECD1454B00225A7021E0464B464A1A6085
:10B6F000464B474A1A60454B1B681846FCF75CFEF0
:10B7000035A3D3E90023FCF7AFFE03460C461846E9
:10B71000214633A3D3E90023FCF7D0FF03460C46B0
:10B7200018462146FDF778F902463A4B1A60334B2A
:10B730005A68334B5B6813441846FCF72BFE24A36E
:10B74000D3E90023FDF716F90346002B0FD02B4B4E
:10B750005A682B4B5B6813441846FCF71BFE22A368
:10B76000D3E90023FDF7F2F80346002BBDD102E038
:10B77000214B07225A70214B5A68214B5B681344B6
:10B780001846FCF707FE1AA3D3E90023FDF7DEF8FD
:10B790000346002BECD1184B00225A70164B0422A2
:10B7A0005A71164B00225A60154B00225A601A4BF0
:10B7B00000225A60154B4FF000021A60154B4FF0F3
:10B7C00000021A600F4B104A1A6000BF98BD00BFFC
:10B7D00039484F2382F0B7403333333333B34B40D0
:10B7E0006666666666265F403F3A959A38C6EF40C1
:10B7F000A3917F6F2462F14074000020500000206C
:10B800005C0000207C02002000000743E8E60120E5
:10B8100066E63A43C04400206800002000000000B3
:10B8200098B500AF504B06225A7102E04E4B0422ED
:10B830005A704E4B5A684E4B5B6813441846FCF7DF
:10B84000A9FD3FA3D3E90023FDF780F80346002BB1
:10B85000ECD1454B00225A7021E0464B464A1A6013
:10B86000464B474A1A60454B1B681846FCF7A4FD37
:10B8700035A3D3E90023FCF7F7FD03460C46184631
:10B88000214633A3D3E90023FCF718FF03460C46F7
:10B8900018462146FDF7C0F802463A4B1A60334B72
:10B8A0005A68334B5B6813441846FCF773FD24A3B6
:10B8B000D3E90023FDF75EF80346002B0FD02B4B96
:10B8C0005A682B4B5B6813441846FCF763FD22A3B0
:10B8D000D3E90023FDF73AF80346002BBDD102E07F
:10B8E000214B05225A70214B5A68214B5B68134447
:10B8F0001846FCF74FFD1AA3D3E90023FDF726F8FD
:10B900000346002BECD1184B00225A70164B042230
:10B910005A71164B00225A60154B00225A601A4B7E
:10B9200000225A60174B4FF000021A60134B4FF081
:10B9300000021A600F4B104A1A6000BF98BD00BF8A
:10B9400039484F2382F0B7403333333333B34B405E
:10B950006666666666265F403F3A959A38C6EF404F
:10B96000A3917F6F2462F1407400002050000020FA
:10B970005C0000207C02002000000743C04400203F
:10B9800066E63A43E8E60120680000200000000077
:10B9900080B500AF70E0564B5A68564B5B68134455
:10B9A0001846FCF7F7FC4AA3D3E90023FCF7CEFFC7
:10B9B0000346002B05D0504B04225A714F4B504A7E
:10B9C0001A604B4B5A684B4B5B6813441846FCF7A4
:10B9D000E1FC3FA3D3E90023FCF7CCFF0346002B97
:10B9E00022D0434B5A68434B5B6813441846FCF71C
:10B9F000D1FC39A3D3E90023FCF7A8FF0346002BB1
:10BA000012D03D4B06225A713C4B3D4A1A603D4BC9
:10BA10003D4A1A603B4BD3ED007A9FED3C7A67EECE
:10BA2000877A3B4BC3ED007A314B5A68314B5B68E8
:10BA300013441846FCF7AEFC27A3D3E90023FCF718
:10BA400099FF0346002B00D116E0294B5A68294B79
:10BA50005B6813441846FCF79DFC21A3D3E900233F
:10BA6000FCF774FF0346002B00D105E0224B0422B3
:10BA70005A71224B224A1A601D4B5A681D4B5B6853
:10BA800013441846FCF786FC17A3D3E90023FCF700
:10BA90005DFF0346002B7FF47EAF174B04225A71E3
:10BAA000134B00225A60134B00225A60194B00229C
:10BAB0005A60144B4FF000021A60154B4FF0000211
:10BAC0001A600E4B0E4A1A6000BF80BDAFF30080B3
:10BAD0008DEF7F0E518FDA40089DBF0AAA92EB408E
:10BAE00068CAFF48296DF44067CAFF48296DF440D1
:10BAF000500000205C000020740000207C02002028
:10BB000000000743E8E60120000087430000000032
:10BB1000C04400206800002080B500AF70E0564BA4
:10BB20005A68564B5B6813441846FCF733FC4AA32B
:10BB3000D3E90023FCF70AFF0346002B05D0504B46
:10BB400004225A714F4B504A1A604B4B5A684B4B68
:10BB50005B6813441846FCF71DFC3FA3D3E90023A0
:10BB6000FCF708FF0346002B22D0434B5A68434B97
:10BB70005B6813441846FCF70DFC39A3D3E9002396
:10BB8000FCF7E4FE0346002B12D03D4B06225A710F
:10BB90003C4B3D4A1A603D4B3D4A1A603B4BD3ED4E
:10BBA000007A9FED3C7A67EE877A3B4BC3ED007AD3
:10BBB000314B5A68314B5B6813441846FCF7EAFB7B
:10BBC00027A3D3E90023FCF7D5FE0346002B00D1C1
:10BBD00016E0294B5A68294B5B6813441846FCF75A
:10BBE000D9FB21A3D3E90023FCF7B0FE0346002BC9
:10BBF00000D105E0224B04225A71224B224A1A60DE
:10BC00001D4B5A681D4B5B6813441846FCF7C2FB7A
:10BC100017A3D3E90023FCF799FE0346002B7FF41A
:10BC20007EAF174B04225A71134B00225A60134BFC
:10BC300000225A60194B00225A60174B4FF0000245
:10BC40001A60124B4FF000021A600E4B0E4A1A6037
:10BC500000BF80BDAFF300808DEF7F0E518FDA40C3
:10BC6000089DBF0AAA92EB4068CAFF48296DF440BC
:10BC700067CAFF48296DF440500000205C00002096
:10BC8000740000207C02002000000743C044002014
:10BC90000000874300000000E8E601206800002063
:10BCA00080B582B000AF0023FB718BE04D4B4FF0AD
:10BCB00000021A604C4A937A6FF300039372FDF707
:10BCC000C3F94A4B00225A60494B00225A60494B43
:10BCD00000225A60444B0122DA7034E0464B93ED67
:10BCE000007A464BD3ED007A77EEA77A3F4B5B683C
:10BCF00006EE903AF8EEE66AF0EE661AB0EE671AD3
:10BD0000DFED3F0AB0EE470AFFF758FAF0EE407A4F
:10BD1000394BC3ED007A384BD3ED007A394B93EDB4
:10BD2000007A384BD3ED016A364B93ED026AB0EEE0
:10BD3000462AF0EE661AB0EE471ADFED330AB0EE8F
:10BD4000670AFEF7F7FD294B5B6807EE903AB8EEFD
:10BD5000E77A2A4BD3ED007A77EEA77AB4EEE77A4A
:10BD6000F1EE10FABAD9224B5B6807EE903AB8EEC2
:10BD7000E77A224BD3ED007AF1EE677A77EEA77A75
:10BD8000B4EEE77AF1EE10FAA8DA174B0022DA7077
:10BD90001E4B00221A801E4B00221A80114B4FF0BE
:10BDA00000021A60144B4FF000021A600F4B002281
:10BDB0005A600F4B00225A600E4B00225A60FB79EA
:10BDC0000133FB71FB79002B3FF470AF064A937A85
:10BDD0006FF300039372FDF737F900BF0837BD46D4
:10BDE00080BD00BF7C0200207400002050000020B5
:10BDF0005C00002068000020800200200400002079
:10BE0000000016C4380000206F12833A18E60120A3
:10BE100010E601200000000080B500AF284A937AA8
:10BE20006FF300039372FDF70FF9254B04225A714B
:10BE3000244B00225A60244B00225A60234B0022DC
:10BE40005A601F4B0122DA7002E0214B214A1A602E
:10BE50001C4B5A681C4B5B681344002B0FDB194BBF
:10BE60005A68194B5B6813441846FCF793FA12A3FF
:10BE7000D3E90023FCF76AFD0346002BE5D1104B04
:10BE80000022DA70124B4FF000021A600C4B0522B0
:10BE90005A710C4B00225A600B4B00225A600B4B1C
:10BEA00000225A60064A937A6FF300039372FDF7FB
:10BEB000CBF800BF80BD00BFA6410836187AD0403D
:10BEC00074000020500000205C000020680000206A
:10BED0007C0200200000B44280B582B000AF2C4A42
:10BEE000937A6FF300039372FDF7AEF8294B0022AB
:10BEF0005A60294B00225A60284B00225A60244B7A
:10BF00000122DA7005E0264B264A1A60204B0422F3
:10BF10005A71204B5A68204B5B6813441846FCF753
:10BF200039FA19A3D3E90023FCF72EFD0346002BB1
:10BF3000E9D11B4B4FF000021A60154B05225A71D4
:10BF4000134B0022DA70134B00225A60124B00226E
:10BF50005A60124B00225A600D4A937A6FF3000325
:10BF60009372FDF771F800237B6002E07B68013378
:10BF70007B607B680C4A9342F8DD00BF0837BD4602
:10BF800080BD00BFAFF3008039E245CEEB75D1C074
:10BF900074000020500000205C0000206800002099
:10BFA0007C0200200000B4C27F1A060080B500AFFA
:10BFB000FFF732FFFFF72AFAFFF78EFFFFF72CFF9C
:10BFC000FFF7CCFAFFF788FFFFF726FFFFF7C6FA67
:10BFD000FFF782FFFFF720FFFFF718FAFFF77CFF5C
:10BFE00000BF80BD0000000080B582B000AF224BD2
:10BFF0005B7A032B38D801A252F823F00DC0000859
:10C0000043C0000849C000084FC00008FEF768FFA1
:10C0100000237B6002E07B6801337B607B68174A0A
:10C020009342F8DDFFF7F2F900233B6002E03B6842
:10C0300001333B603B68114A9342F8DDFEF7A4FEF2
:10C0400012E0FFF735FB0FE0FFF7A2FC0CE0FEF774
:10C0500047FF9FED070B6FF05900FFF72DF9FCF735
:10C0600003FFFEF791FE00BF00BF0837BD4680BD4D
:10C0700000000000000014C0740000209F86010032
:10C0800080B582B000AF224B5B7A032B37D801A278
:10C0900052F823F0A5C00008DBC00008E1C000088A
:10C0A000E7C00008FEF71CFF00237B6002E07B680E
:10C0B00001337B607B68174A9342F8DDFFF74EFA45
:10C0C00000233B6002E03B6801333B603B68114A60
:10C0D0009342F8DDFEF758FE11E0FFF7A1FB0EE0FA
:10C0E000FFF71AFD0BE0FEF7FBFE9FED070B5A2052
:10C0F000FFF7E2F8FCF7B8FEFEF746FE00BF00BF10
:10C100000837BD4680BD00BF00000000000014409D
:10C11000740000209F86010080B500AF4FF480516D
:10C120005B4805F0ABF90346012B40F0A38059486A
:10C1300009F0E4F8FDF7E8FA574806F0D6FB57484F
:10C1400006F0D3FBFDF770FAFDF79CFA4FF4C870C8
:10C1500003F0D6F9524B93F90430DBB20133DBB272
:10C160005AB24F4B1A714E4B93F90430052B40F0E5
:10C1700081804B4B03221A717CE04A4B5B6A1A4662
:10C18000494B1A60484B1B681946484809F042F869
:10C19000454B1B6849F22E5293421EDD404B93F9EA
:10C1A0000030DBB20133DBB25AB23D4B1A703C4B6C
:10C1B00093F90030072B02DD394B00221A70FDF78E
:10C1C0008FFCFDF7F1FE364B93F90020344B9A704B
:10C1D0004FF4FA7003F094F94CE0334B1B6845F2CE
:10C1E0002F5293421EDC2E4B93F90030DBB2013B01
:10C1F000DBB25AB22A4B1A70294B93F90030002B4C
:10C2000002DA274B07221A70FDF76AFCFDF7CCFE15
:10C21000234B93F90020224B9A704FF4FA7003F0ED
:10C220006FF927E04FF48051194805F027F90346CC
:10C23000012B1FD11E4809F061F84FF4FA7003F08A
:10C240005FF9FDF77BFA174B47F22F525A62194BF1
:10C2500047F22F525A62114806F023FB0E4806F0AF
:10C2600020FB0F4B93F90430DBB20133DBB25AB23F
:10C270000B4B1A710A4B93F90430002B03F00103A6
:10C28000B8BF5B425BB2012B3FF477AF00BF80BD0C
:10C290000004024014710108DCE10120F043002099
:10C2A00074000020000400405000002020710108AC
:10C2B000807001080008004080B485B000AF002302
:10C2C000FB600023BB6000237B6000233B600023F6
:10C2D000FB6013E00023BB600AE0934AFB689B000D
:10C2E0001A44BB6813440F221A70BB680133BB6049
:10C2F000BB68032BF1DDFB680133FB60FB68032B9C
:10C30000E8DD0223FB6013E00023BB600AE0864AFD
:10C31000FB689B001A44BB68134400221A70BB6878
:10C320000133BB60BB68012BF1DDFB680133FB60AF
:10C33000FB68032BE8DD00237B600023FB60E2E069
:10C340000023BB60D8E0784AFB689B001A44BB68B6
:10C3500013441B781A463B68934240F0CA807349E5
:10C36000FB689A00BB68134411F81330C3F3010350
:10C37000DBB2012B25D0BB6801336B49FA68920010
:10C380000A4413441A786849FB689B001944BB6847
:10C390000B441B789A4214D9BB68022B11DC624A09
:10C3A000FB689B001A44BB6813441A78BB680133CE
:10C3B0000132D0B25C49FA6892000A441344024642
:10C3C0001A705A49FB689A00BB68134411F813307D
:10C3D000C3F38103DBB2012B25D0FB680133524A42
:10C3E0009B001A44BB6813441A784F49FB689B00B2
:10C3F0001944BB680B441B789A4214D9FB68022B82
:10C4000011DC494AFB689B001A44BB6813441A7844
:10C41000FB6801330132D1B2434A9B001A44BB6826
:10C4200013440A461A704149FB689A00BB681344DA
:10C4300011F81330C3F30113DBB2012B25D0BB6815
:10C44000013B3949FA6892000A4413441A78364984
:10C45000FB689B001944BB680B441B789A4214D9B3
:10C46000BB68002B11DD304AFB689B001A44BB6897
:10C4700013441A78BB68013B0132D0B22A49FA68EA
:10C4800092000A44134402461A702849FB689A0035
:10C49000BB68134411F81330C3F38113DBB2012BD3
:10C4A00025D0FB68013B204A9B001A44BB6813441B
:10C4B0001A781D49FB689B001944BB680B441B7824
:10C4C0009A4214D9FB68002B11DD174AFB689B00C8
:10C4D0001A44BB6813441A78FB68013B0132D1B29D
:10C4E000114A9B001A44BB6813440A461A70012380
:10C4F0007B60BB680133BB60BB68032B7FF723AF56
:10C50000FB680133FB60FB68032B7FF719AF3B68C7
:10C5100001333B607B68002B7FF40DAF00BF143705
:10C52000BD465DF8047B70479CE1012020E60120B8
:10C5300080B500AF4FF47A7002F0E2FFFEF724FC02
:10C54000FEF77EFDFEF77CFDFEF7CAFCFDF7DCF88A
:10C550000A4806F0CAF90A4806F0C7F9094B1B68F1
:10C560001946094808F056FE084B1B68194608484A
:10C5700008F050FE074808F0C1FEEFE7DCE10120BB
:10C58000F0430020B402002028710108B00200200E
:10C59000447101088070010890B482B000AF8B4BE9
:10C5A00093ED007A8A4BD3ED007A37EE277AF0EEDE
:10C5B000006AC7EE267AB3EE0E7AF4EEC77AF1EE91
:10C5C00010FACCBF01230023DAB2824B1B7807F1AB
:10C5D00008010B4403F8042C7F4BD3ED007A9FED48
:10C5E0007F7AF4EEC77AF1EE10FACCBF0123002374
:10C5F000D9B2784B1B7801335A4203F0030302F09F
:10C60000030258BF53420A4607F108010B4403F8DE
:10C61000042C704B1B7802335A4203F0030302F0E0
:10C62000030258BF534207F108021344002203F8E3
:10C63000042C6B4BD3ED007A9FED6A7AF4EEC77A47
:10C64000F1EE10FACCBF01230023D9B2614B1B7865
:10C6500003335A4203F0030302F0030258BF53426C
:10C660000A4607F108010B4403F8042C39795E4BA4
:10C670001B781C465D4B1B781A460B4603F00303E0
:10C68000D8B25B49A3001A4411F8123060F30103D9
:10C6900001F812307979544B1B781C46534B1B78A8
:10C6A0001A460B4603F00303D8B25149A3001A44BB
:10C6B00011F8123060F3830301F81230B9794A4B54
:10C6C0001B781C46494B1B781A460B4603F00303A4
:10C6D000D8B24749A3001A4411F8123060F3051389
:10C6E00001F81230F979404B1B781C463F4B1B7800
:10C6F0001A460B4603F00303D8B23D49A3001A447F
:10C7000011F8123060F3871301F81230374B1B78A1
:10C71000022B12D83979344B1B781A46334B1B78CD
:10C72000013301F00301C8B2314992001A4411F8F3
:10C73000123060F3051301F812302B4B1B78022BDB
:10C7400011D87979284B1B780133284A127801F0E7
:10C750000301C8B226499B001A4411F8123060F355
:10C76000871301F81230214B1B78002B12D0B979B6
:10C770001D4B1B781A461D4B1B78013B01F0030132
:10C78000C8B21B4992001A4411F8123060F3010339
:10C7900001F81230144B1B78002B11D0F979124B91
:10C7A0001B78013B114A127801F00301C8B210490D
:10C7B0009B001A4411F8123060F3830301F8123021
:10C7C00000BF0837BD4690BC704700BFF8E60120A7
:10C7D000D8DB0120C64400200CE601200000C8423E
:10C7E000E843002000000C43C4020020C5020020E2
:10C7F00020E6012080B588B000AFA54B1B78032B45
:10C8000000F21C8201A252F823F000BF1DC80008EC
:10C810001FC9000821CA00083BCB00089D4B1B78AC
:10C8200018469D4B1B7819469C4A83000B4412F80E
:10C830001330C3F38113DBB2002B0BD1FFF720FCC5
:10C84000934B03221A70934B1B78013BDAB2914B46
:10C850001A70F4E18F4B1B7818468F4B1B781946E2
:10C860008E4A83000B4412F81330C3F30103DBB28A
:10C87000002B0BD1FEF7E4FB854B00221A70864B90
:10C880001B780133DAB2844B1A70D8E1814B1B78E4
:10C890001846814B1B781946804A83000B4412F8D6
:10C8A0001330C3F38103DBB2002B0BD1FFF79CFBEA
:10C8B000774B01221A70774B1B780133DAB2754B34
:10C8C0001A70BCE1FEF70CFB0023FB6102E0FB6980
:10C8D0000133FB61FB69724A9342F8DD714B93F9B6
:10C8E0000230012B01D1FCF70FFFFFF7D9F900232C
:10C8F000BB6102E0BB690133BB61BB69684A93421B
:10C90000F8DDFFF7E9FAFEF7EBF9614B02221A7046
:10C91000614B1B78013BDAB25F4B1A708FE15D4BC4
:10C920001B7818465C4B1B7819465C4A83000B4405
:10C9300012F81330C3F30103DBB2002B0BD1FFF766
:10C940009FFB534B00221A70534B1B780133DAB212
:10C95000514B1A7073E14F4B1B7818464E4B1B78A6
:10C9600019464E4A83000B4412F81330C3F3810377
:10C97000DBB2002B0BD1FEF763FB454B01221A7093
:10C98000444B1B780133DAB2424B1A7057E1414BEA
:10C990001B781846404B1B781946404A83000B44CD
:10C9A00012F81330C3F30113DBB2002B0BD1FFF7E6
:10C9B0001BFB374B02221A70374B1B78013BDAB254
:10C9C000354B1A703BE1FEF78BFA00237B6102E0E6
:10C9D0007B6901337B617B69314A9342F8DD314BDE
:10C9E00093F90230012B01D1FCF78EFEFFF758F9C5
:10C9F00000233B6102E03B6901333B613B69284A0C
:10CA00009342F8DDFFF768FAFEF76AF9204B03223C
:10CA10001A70204B1B78013BDAB21E4B1A700EE1E4
:10CA20001C4B1B7818461C4B1B7819461B4A83006D
:10CA30000B4412F81330C3F38103DBB2002B0BD18C
:10CA4000FFF71EFB124B01221A70124B1B780133A9
:10CA5000DAB2104B1A70F2E00E4B1B7818460E4BF0
:10CA60001B7819460D4A83000B4412F81330C3F3A8
:10CA70000113DBB2002B17D1FEF7E2FA044B0222BE
:10CA80001A70054B1B78013BDAB2034B1A70D6E0E3
:10CA9000C6440020C4020020C502002020E6012078
:10CAA0009F86010074000020674B1B781846674B77
:10CAB0001B781946664A83000B4412F81330C3F3FF
:10CAC0008113DBB2002B0BD1FFF78EFA614B0322EF
:10CAD0001A705D4B1B78013BDAB25B4B1A70AEE00B
:10CAE000FEF7FEF90023FB6002E0FB680133FB6008
:10CAF000FB68594A9342F8DD584B93F90230012BF9
:10CB000001D1FCF701FEFFF7CBF80023BB6002E088
:10CB1000BB680133BB60BB684F4A9342F8DDFFF747
:10CB2000DBF9FEF7DDF84B4B00221A70474B1B7800
:10CB30000133DAB2454B1A7081E0434B1B7818463B
:10CB4000424B1B781946424A83000B4412F81330BB
:10CB5000C3F30113DBB2002B0BD1FFF791FA3D4B6E
:10CB600002221A70394B1B78013BDAB2374B1A702C
:10CB700065E0354B1B781846344B1B781946344A10
:10CB800083000B4412F81330C3F38113DBB2002B84
:10CB90000BD1FEF755FA2F4B03221A702A4B1B7844
:10CBA000013BDAB2284B1A7049E0274B1B78184634
:10CBB000264B1B781946264A83000B4412F8133083
:10CBC000C3F30103DBB2002B0BD1FFF70DFA214BAE
:10CBD00000221A701D4B1B780133DAB21B4B1A70FE
:10CBE0002DE0FEF77DF900237B6002E07B680133D6
:10CBF0007B607B68184A9342F8DD184B93F902304A
:10CC0000012B01D1FCF780FDFFF74AF800233B60C0
:10CC100002E03B6801333B603B680F4A9342F8DD1A
:10CC2000FFF75AF9FEF75CF80A4B01221A70064B1F
:10CC30001B780133DAB2044B1A7000E000BF00BF6A
:10CC40002037BD4680BD00BFC4020020C5020020C1
:10CC500020E60120C64400209F86010074000020C9
:10CC600080B500AFFFF7A2F92F4B00225A72FCF7F4
:10CC70009FFA2E4B00221A702C4B1A782C4B1A70EC
:10CC80002C4B00221A70FFF787FC294B1B781846A3
:10CC9000264B1B781A46284983001A4411F8123093
:10CCA000012060F3051301F81230FEF719F8204B4C
:10CCB00000221A701D4B1B780133DAB21B4B1A701D
:10CCC0000FE0FFF769FCFFF795FD194B1B7819463C
:10CCD0001A4808F09FFA154B1B781946184808F0B7
:10CCE00099FA134B1B78032BEBD1104B1B78012BBC
:10CCF000E7D1FEF7F5F8FFF74FFCFCF705FD0A4B0F
:10CD000007221A70FCF7ECFE4FF47A7002F0F8FB81
:10CD1000FCF7C2FAFCF734FC034B00221A70FCF754
:10CD2000DFFE00BF80BD00BF74000020C5020020F0
:10CD3000C4020020C644002020E6012060710108E2
:10CD40006C71010890B58DB000AF954B00225A72FE
:10CD5000944B1B78032B00F2B58301A252F823F009
:10CD600071CD000831CF00080DD10008E9D20008CC
:10CD70008D4B1B7818468D4B1B7819468C4A8300C7
:10CD80000B4412F81330C3F30103DBB2002B27D19D
:10CD9000854B1B781A46854B1B78013385499200D9
:10CDA0000A4413441A78804B1B781C467F4B1B782F
:10CDB00018468049A3000B4403441B789A420FD2C3
:10CDC0007A4B1B78022B0BD8FEF73AF9754B0022F1
:10CDD0001A70764B1B780133DAB2744B1A70A6E0E6
:10CDE000714B1B781846714B1B781946704A8300AB
:10CDF0000B4412F81330C3F38113DBB2002B27D19D
:10CE0000694B1B78013B694A12781146694A9B00BD
:10CE100013440B441A78644B1B781C46634B1B78F5
:10CE200018466449A3000B4403441B789A420FD26E
:10CE30005D4B1B78002B0BD0FFF722F9594B0322D7
:10CE40001A70594B1B78013BDAB2574B1A706EE0DF
:10CE5000554B1B781846554B1B781946544A83008E
:10CE60000B4412F81330C3F38103DBB2002B27D13C
:10CE70004D4B1B7801334D4A127811464D4A9B00A9
:10CE800013440B441A78484B1B781C46474B1B78BD
:10CE900018464849A3000B4403441B789A420FD21A
:10CEA000414B1B78022B0BD8FFF79EF83D4B01221C
:10CEB0001A703D4B1B780133DAB23B4B1A7036E0E7
:10CEC000FEF70EF80023FB6202E0FB6A0133FB620F
:10CED000FB6A394A9342F8DD314B93F90230012B5A
:10CEE00001D1FCF711FCFEF7DBFE0023BB6202E080
:10CEF000BB6A0133BB62BB6A2F4A9342F8DDFEF77F
:10CF0000EBFF00237B6202E07B6A01337B627B6A7A
:10CF1000294A9342F8DDFDF7E3FE224B02221A7004
:10CF2000224B1B78013BDAB2204B1A70CBE2CAE2EB
:10CF30001D4B1B7818461D4B1B7819461C4A830055
:10CF40000B4412F81330C3F38103DBB2002B35D14D
:10CF5000154B1B780133154A12781146154A9B0070
:10CF600013440B441A78104B1B781C460F4B1B784C
:10CF700018461049A3000B4403441B789A421DD263
:10CF8000094B1B78022B19D8FEF75AF8054B0122E2
:10CF90001A70054B1B780133DAB2034B1A70B4E0F8
:10CFA00074000020C6440020C4020020C5020020F6
:10CFB00020E601209CE101209F8601008B4B1B781D
:10CFC00018468B4B1B7819468A4A83000B4412F88B
:10CFD0001330C3F30103DBB2002B27D1834B1B7843
:10CFE0001A46834B1B780133834992000A44134449
:10CFF0001A787E4B1B781C467D4B1B7818467E4961
:10D00000A3000B4403441B789A420FD2784B1B7841
:10D01000022B0BD8FFF734F8784B00221A70744BB0
:10D020001B780133DAB2724B1A706EE06F4B1B78CB
:10D0300018466F4B1B7819466E4A83000B4412F852
:10D040001330C3F30113DBB2002B27D1674B1B78DE
:10D050001A46674B1B78013B674992000A44134408
:10D060001A78624B1B781C46614B1B781846624944
:10D07000A3000B4403441B789A420FD25C4B1B78ED
:10D08000002B0BD0FEF7B0FF5C4B02221A70584BFE
:10D090001B78013BDAB2564B1A7036E0FDF720FFE1
:10D0A00000233B6202E03B6A01333B623B6A544A25
:10D0B0009342F8DD534B93F90230012B01D1FCF779
:10D0C00023FBFEF7EDFD0023FB6102E0FB6901336A
:10D0D000FB61FB694A4A9342F8DDFEF7FDFE00233F
:10D0E000BB6102E0BB690133BB61BB69444A934247
:10D0F000F8DDFDF7F5FD414B03221A703B4B1B7821
:10D10000013BDAB2394B1A70DDE1DCE1374B1B78B9
:10D110001846374B1B781946364A83000B4412F8E1
:10D120001330C3F30113DBB2002B27D12F4B1B7835
:10D130001A462F4B1B78013B2F4992000A44134497
:10D140001A782A4B1B781C46294B1B7818462A490B
:10D15000A3000B4403441B789A420FD2244B1B7844
:10D16000002B0BD0FDF76CFF244B02221A70204BD2
:10D170001B78013BDAB21E4B1A70B4E01B4B1B78D4
:10D1800018461B4B1B7819461A4A83000B4412F8A9
:10D190001330C3F38103DBB2002B35D1134B1B7863
:10D1A0000133134A12781146134A9B0013440B446F
:10D1B0001A780E4B1B781C460D4B1B7818460E49EF
:10D1C000A3000B4403441B789A421DD2074B1B78E3
:10D1D000022B19D8FEF754FF084B01221A70034B9B
:10D1E0001B780133DAB2014B1A707CE0C4020020D4
:10D1F000C502002020E601209CE10120C644002059
:10D200009F860100740000209D4B1B7818469D4BA3
:10D210001B7819469C4A83000B4412F81330C3F361
:10D220008113DBB2002B27D1954B1B78013B954A2C
:10D2300012781146954A9B0013440B441A78904B80
:10D240001B781C468F4B1B7818469049A3000B4453
:10D2500003441B789A420FD2894B1B78002B0BD0CA
:10D26000FEF7C2FE8A4B03221A70854B1B78013BE6
:10D27000DAB2834B1A7036E0FDF732FE00237B6191
:10D2800002E07B6901337B617B69824A9342F8DD6E
:10D29000814B93F90230012B01D1FCF735FAFEF7EF
:10D2A000FFFC00233B6102E03B6901333B613B69CA
:10D2B000784A9342F8DDFEF70FFE0023FB6002E0A0
:10D2C000FB680133FB60FB68724A9342F8DDFDF7AF
:10D2D00007FD6F4B00221A706A4B1B780133DAB2DC
:10D2E000684B1A70EFE0EEE0654B1B781846654B13
:10D2F0001B781946644A83000B4412F81330C3F3B9
:10D300008113DBB2002B27D15D4B1B78013B5D4ABB
:10D31000127811465D4A9B0013440B441A78584B0F
:10D320001B781C46574B1B7818465849A3000B44E2
:10D3300003441B789A420FD2514B1B78002B0BD021
:10D34000FDF77EFE524B03221A704D4B1B78013BBA
:10D35000DAB24B4B1A70B4E0494B1B781846494B74
:10D360001B781946484A83000B4412F81330C3F364
:10D370000113DBB2002B27D1414B1B781A46414BDE
:10D380001B78013B414992000A4413441A783C4BF4
:10D390001B781C463B4B1B7818463C49A3000B44AA
:10D3A00003441B789A420FD2364B1B78002B0BD0CC
:10D3B000FEF766FE364B02221A70324B1B78013B99
:10D3C000DAB2304B1A707CE02D4B1B7818462D4B8F
:10D3D0001B7819462C4A83000B4412F81330C3F310
:10D3E0000103DBB2002B27D1254B1B781A46254BB6
:10D3F0001B780133254992000A4413441A78204BC4
:10D400001B781C461F4B1B7818462049A3000B4471
:10D4100003441B789A420FD21A4B1B78022B0BD86D
:10D42000FEF7E2FD1A4B00221A70164B1B780133EF
:10D43000DAB2144B1A7044E0FDF752FD0023BB60D2
:10D4400002E0BB680133BB60BB68124A9342F8DD5F
:10D45000114B93F90230012B01D1FCF755F9FEF77E
:10D460001FFC00237B6002E07B6801337B607B68EC
:10D47000084A9342F8DDFEF72FFD00233B6010E0E1
:10D48000C4020020C502002020E601209CE101200A
:10D49000C64400209F860100740000203B680133D1
:10D4A0003B603B680A4A9342F8DDFDF719FC094BE3
:10D4B00001221A70084B1B780133DAB2064B1A703E
:10D4C00001E000E000BF00BF3437BD4690BD00BFA3
:10D4D0009F860100C6440020C402002080B500AF32
:10D4E000FBF766FE2A4B00221A70294B1A78294B4B
:10D4F0001A70294B00221A70FFF74EF8254B1B7843
:10D500001846234B1B781A46244983001A4411F805
:10D510001230012060F3051301F81230FEF7CCFE43
:10D52000FDF7DEFB1B4B00221A70194B1B780133F1
:10D53000DAB2174B1A7005E0FFF72EF8FEF7BCFEC3
:10D54000FFF700FC134B1B78012BF5D9114B1B780F
:10D55000032BF1D80E4B1B78012BEDD8FDF7C0FC47
:10D56000FFF71AF8FCF7D0F80D4B07221A70FCF7FA
:10D57000B7FA4FF47A7001F0C3FFFBF78DFEFBF7AB
:10D58000FFFF074B00221A70FCF7AAFA00BF80BD0C
:10D59000C5020020C4020020C644002020E601206D
:10D5A0007400002080B483B000AF786000BF0C37F7
:10D5B000BD465DF8047B70472DE9B04F2DED028B21
:10D5C00082B000AF78607B68BF4A934240F0BD8371
:10D5D000BE4B1B7A002B03D0012B00F02783B5E351
:10D5E000FBF7A6FDBA4B5B6A1A46BA4B1A60BA4BF8
:10D5F0005B6A1A46B94B1A60B64B1B68C3F5EA431F
:10D600002F33B44A1360B54B1B68C3F5EA432F337D
:10D61000B24A1360AD4B93F903301BB21846FCF7C6
:10D62000D7FC03465AB2A94BDA70AC4B1A68A94B27
:10D630001B681A44AA4B1B681344A94A1360FCF7E1
:10D64000B3FCA44B1B6807EE903AF8EEE77ADFEDE7
:10D65000A50AB0EE670AFCF77FFCF0EE407AA24B19
:10D66000C3ED007A9D4B1B6807EE903AF8EEE77A1F
:10D67000DFED9C0AB0EE670AFCF76EFCF0EE407A34
:10D680009A4BC3ED007A984B93ED007A974BD3ED0C
:10D69000007A37EE277AF0EE006AC7EE267A944BCE
:10D6A000C3ED007AFCF758F8B0EE407AF0EE607AFD
:10D6B000904B83ED007B854B5B79062B00F2A880B5
:10D6C00001A252F823F000BFE5D6000801D70008F8
:10D6D0001DD7000839D7000899D70008F3D70008EC
:10D6E000FFD700089FED840AFCF7C0FC9FED7D0A80
:10D6F000FDF72CFA754A93796FF30003937188E074
:10D700009FED7D0AFCF77EFD9FED760AFDF71EFA80
:10D710006E4A93796FF3000393717AE09FED760A76
:10D72000FCF746FE9FED6F0AFDF710FA674A937902
:10D730006FF3000393716CE0704B1B681846FAF7A7
:10D740003BFE04460D466B4B93ED008B6C4B1B6808
:10D750001846FAF731FE80468946694B5B681846E1
:10D76000FAF72AFE82468B46654B9B681846FAF705
:10D7700023FE02460B4643EC152B4BEC14AB49EC55
:10D78000138B9FED4D2BB0EE481AF0EE681A45EC66
:10D79000104BFCF79FF83CE09FED520AFDF7D6F9DD
:10D7A000544B93ED008B564B1B681846FAF704FE5A
:10D7B00004460D46524B5B681846FAF7FDFD80465D
:10D7C00089464F4B9B681846FAF7F6FD02460B4612
:10D7D00043EC152B49EC148B45EC134B9FED362B8A
:10D7E000B0EE481AF0EE681A9FED350BFCF772F8B0
:10D7F0000FE0364A93796FF30003937109E09FEDD0
:10D80000390AFCF76FFF9FED370AFCF7FFFF00E0D6
:10D8100000BF2E4B93F90130012B16D1394BD3EDBC
:10D82000007A9FED397AF4EEC77AF1EE10FA40F102
:10D830000F81344B93ED007A344BD3ED007A77EEC1
:10D84000277A304BC3ED007A02E1204B93F9013087
:10D85000022B16D12B4BD3ED007A9FED2B7AF4EEF1
:10D86000C77AF1EE10FA40F1F380264B93ED007A7F
:10D87000274BD3ED007A77EE277A224BC3ED007A5F
:10D88000E6E0124B93F90130032B43D11D4BD3ED4E
:10D89000007AF5EEC07AF1EE10FA40F3D980194B18
:10D8A00093ED007A1A4BD3ED007A77EE677A154B39
:10D8B000C3ED007ACCE000BFFCA9F1D24D62503F2D
:10D8C0000000000000000000DCE1012074000020E6
:10D8D0000004004050000020000800405C000020D0
:10D8E000B40200206F12833A1CE60120F0E601200A
:10D8F000304400209802002017B7513884020020DD
:10D90000440000207C0200200000074308000020A3
:10D910000C000020A84B93F90130042B24D1A74B15
:10D920001B681846FAF748FDA1A3D3E90023FBF7CB
:10D930000DF80346002B00F08B80A04B93ED007A8E
:10D940009F4BD3ED007A77EE277A9C4BC3ED007A9C
